{
  "contractName": "CalculationProc",
  "abi": [
    {
      "inputs": [
        {
          "name": "id",
          "type": "string"
        },
        {
          "name": "st",
          "type": "uint256"
        },
        {
          "name": "fund",
          "type": "uint256"
        },
        {
          "name": "participantCount",
          "type": "uint8"
        },
        {
          "name": "distribute",
          "type": "uint256[8]"
        }
      ],
      "payable": true,
      "stateMutability": "payable",
      "type": "constructor"
    },
    {
      "payable": true,
      "stateMutability": "payable",
      "type": "fallback"
    },
    {
      "anonymous": false,
      "inputs": [
        {
          "indexed": false,
          "name": "participant",
          "type": "address"
        },
        {
          "indexed": false,
          "name": "ans",
          "type": "string[][]"
        },
        {
          "indexed": false,
          "name": "ansHash",
          "type": "bytes"
        }
      ],
      "name": "committed",
      "type": "event"
    },
    {
      "anonymous": false,
      "inputs": [
        {
          "indexed": false,
          "name": "participant",
          "type": "address"
        }
      ],
      "name": "punished",
      "type": "event"
    },
    {
      "anonymous": false,
      "inputs": [
        {
          "indexed": false,
          "name": "ans",
          "type": "bytes"
        }
      ],
      "name": "terminated",
      "type": "event"
    },
    {
      "constant": false,
      "inputs": [
        {
          "name": "answer",
          "type": "string[][]"
        },
        {
          "name": "answerHash",
          "type": "bytes"
        }
      ],
      "name": "commit",
      "outputs": [],
      "payable": true,
      "stateMutability": "payable",
      "type": "function"
    },
    {
      "constant": false,
      "inputs": [],
      "name": "terminate",
      "outputs": [],
      "payable": false,
      "stateMutability": "nonpayable",
      "type": "function"
    }
  ],
  "bytecode": "0x608060405260405162001cb938038062001cb983398101806040526200002991908101906200046f565b60008260ff16118015620000445750600860ff168260ff1611155b62000086576040517f08c379a00000000000000000000000000000000000000000000000000000000081526004016200007d9062000615565b60405180910390fd5b620f42408311620000ce576040517f08c379a0000000000000000000000000000000000000000000000000000000008152600401620000c590620005d1565b60405180910390fd5b600083905060008090505b8360ff168160ff1610156200010f57828160ff1660088110620000f857fe5b6020020151820191508080600101915050620000d9565b5034811462000155576040517f08c379a00000000000000000000000000000000000000000000000000000000081526004016200014c90620005f3565b60405180910390fd5b85600c90805190602001906200016d92919062000273565b508460038190555082600260016101000a81548160ff021916908360ff160217905550816004906008620001a3929190620002fa565b506001600260006101000a81548160ff021916908360ff16021790555033600d60006101000a81548173ffffffffffffffffffffffffffffffffffffffff021916908373ffffffffffffffffffffffffffffffffffffffff16021790555083600f6000600d60009054906101000a900473ffffffffffffffffffffffffffffffffffffffff1673ffffffffffffffffffffffffffffffffffffffff1673ffffffffffffffffffffffffffffffffffffffff1681526020019081526020016000208190555050505050505062000747565b828054600181600116156101000203166002900490600052602060002090601f016020900481019282601f10620002b657805160ff1916838001178555620002e7565b82800160010185558215620002e7579182015b82811115620002e6578251825591602001919060010190620002c9565b5b509050620002f691906200033f565b5090565b82600881019282156200032c579160200282015b828111156200032b5782518255916020019190600101906200030e565b5b5090506200033b91906200033f565b5090565b6200036491905b808211156200036057600081600090555060010162000346565b5090565b90565b600082601f8301126200037957600080fd5b6008620003906200038a8262000665565b62000637565b91508183856020840282011115620003a757600080fd5b60005b83811015620003db5781620003c0888262000441565b845260208401935060208301925050600181019050620003aa565b5050505092915050565b600082601f830112620003f757600080fd5b81516200040e620004088262000688565b62000637565b915080825260208301602083018583830111156200042b57600080fd5b62000438838284620006dd565b50505092915050565b600081519050620004528162000713565b92915050565b60008151905062000469816200072d565b92915050565b600080600080600061018086880312156200048957600080fd5b600086015167ffffffffffffffff811115620004a457600080fd5b620004b288828901620003e5565b9550506020620004c58882890162000441565b9450506040620004d88882890162000441565b9350506060620004eb8882890162000458565b9250506080620004fe8882890162000367565b9150509295509295909350565b60006200051a601683620006b5565b91507f6d61737465722066756e64206e6f7420656e6f756768000000000000000000006000830152602082019050919050565b60006200055c600c83620006b5565b91507f696e76616c69642066756e6400000000000000000000000000000000000000006000830152602082019050919050565b60006200059e602083620006b5565b91507f696e76616c69642072657761726465645061727469636970616e74436f756e746000830152602082019050919050565b60006020820190508181036000830152620005ec816200050b565b9050919050565b600060208201905081810360008301526200060e816200054d565b9050919050565b6000602082019050818103600083015262000630816200058f565b9050919050565b6000604051905081810181811067ffffffffffffffff821117156200065b57600080fd5b8060405250919050565b600067ffffffffffffffff8211156200067d57600080fd5b602082029050919050565b600067ffffffffffffffff821115620006a057600080fd5b601f19601f8301169050602081019050919050565b600082825260208201905092915050565b6000819050919050565b600060ff82169050919050565b60005b83811015620006fd578082015181840152602081019050620006e0565b838111156200070d576000848401525b50505050565b6200071e81620006c6565b81146200072a57600080fd5b50565b6200073881620006d0565b81146200074457600080fd5b50565b61156280620007576000396000f3fe6080604052600436106100295760003560e01c80630c08bf881461002b57806328ea1c9f14610042575b005b34801561003757600080fd5b5061004061005e565b005b61005c60048036036100579190810190610e29565b6107d0565b005b6003544210156100a3576040517f08c379a000000000000000000000000000000000000000000000000000000000815260040161009a906112a6565b60405180910390fd5b600d60009054906101000a900473ffffffffffffffffffffffffffffffffffffffff1673ffffffffffffffffffffffffffffffffffffffff163373ffffffffffffffffffffffffffffffffffffffff16146101065761010133610b0a565b6107ce565b6000809050606060008090505b60015481101561036e57600080828154811061012b57fe5b906000526020600020906002020160010160009054906101000a900473ffffffffffffffffffffffffffffffffffffffff169050600e60008273ffffffffffffffffffffffffffffffffffffffff1673ffffffffffffffffffffffffffffffffffffffff16815260200190815260200160002060009054906101000a900460ff16156101b75750610361565b6010600083815481106101c657fe5b90600052602060002090600202016000016040516101e491906111cd565b90815260200160405180910390208190806001815401808255809150509060018203906000526020600020016000909192909190916101000a81548173ffffffffffffffffffffffffffffffffffffffff021916908373ffffffffffffffffffffffffffffffffffffffff16021790555050600060106000848154811061026757fe5b906000526020600020906002020160000160405161028591906111cd565b90815260200160405180910390208054905090508481111561035e57809450600083815481106102b157fe5b90600052602060002090600202016000018054600181600116156101000203166002900480601f0160208091040260200160405190810160405280929190818152602001828054600181600116156101000203166002900480156103565780601f1061032b57610100808354040283529160200191610356565b820191906000526020600020905b81548152906001019060200180831161033957829003601f168201915b505050505093505b50505b8080600101915050610113565b50600060108260405161038191906111b6565b9081526020016040518091039020805490509050600260019054906101000a900460ff1660ff168110156104765760008190505b600260019054906101000a900460ff1660ff1681101561045957600481600881106103dc57fe5b0154600f6000600d60009054906101000a900473ffffffffffffffffffffffffffffffffffffffff1673ffffffffffffffffffffffffffffffffffffffff1673ffffffffffffffffffffffffffffffffffffffff1681526020019081526020016000206000828254019250508190555080806001019150506103b5565b5080600260016101000a81548160ff021916908360ff1602179055505b60008090505b600260019054906101000a900460ff1660ff168110156105815760006010846040516104a891906111b6565b908152602001604051809103902082815481106104c157fe5b9060005260206000200160009054906101000a900473ffffffffffffffffffffffffffffffffffffffff1690508073ffffffffffffffffffffffffffffffffffffffff166108fc600f60008473ffffffffffffffffffffffffffffffffffffffff1673ffffffffffffffffffffffffffffffffffffffff168152602001908152602001600020546004856008811061055557fe5b0154019081150290604051600060405180830381858888f193505050505050808060010191505061047c565b5b8181101561066557600060108460405161059c91906111b6565b908152602001604051809103902082815481106105b557fe5b9060005260206000200160009054906101000a900473ffffffffffffffffffffffffffffffffffffffff1690508073ffffffffffffffffffffffffffffffffffffffff166108fc600f60008473ffffffffffffffffffffffffffffffffffffffff1673ffffffffffffffffffffffffffffffffffffffff168152602001908152602001600020549081150290604051600060405180830381858888f1935050505050508080600101915050610582565b600e6000600d60009054906101000a900473ffffffffffffffffffffffffffffffffffffffff1673ffffffffffffffffffffffffffffffffffffffff1673ffffffffffffffffffffffffffffffffffffffff16815260200190815260200160002060009054906101000a900460ff1661079257600d60009054906101000a900473ffffffffffffffffffffffffffffffffffffffff1673ffffffffffffffffffffffffffffffffffffffff166108fc600f6000600d60009054906101000a900473ffffffffffffffffffffffffffffffffffffffff1673ffffffffffffffffffffffffffffffffffffffff1673ffffffffffffffffffffffffffffffffffffffff168152602001908152602001600020549081150290604051600060405180830381858888f19350505050505b7f572f87c9c2cdca799605f94b3f3fdbf185ec1d69c0af81fd61fbaf29970690f7836040516107c19190611244565b60405180910390a1505050505b565b6103e8341015610815576040517f08c379a000000000000000000000000000000000000000000000000000000000815260040161080c90611286565b60405180910390fd5b60035442101561085a576040517f08c379a0000000000000000000000000000000000000000000000000000000008152600401610851906112a6565b60405180910390fd5b6001600260009054906101000a900460ff1660ff16146108af576040517f08c379a00000000000000000000000000000000000000000000000000000000081526004016108a690611266565b60405180910390fd5b600e60003373ffffffffffffffffffffffffffffffffffffffff1673ffffffffffffffffffffffffffffffffffffffff16815260200190815260200160002060009054906101000a900460ff161561090657610b06565b6000600f60003373ffffffffffffffffffffffffffffffffffffffff1673ffffffffffffffffffffffffffffffffffffffff168152602001908152602001600020541415806109a25750600d60009054906101000a900473ffffffffffffffffffffffffffffffffffffffff1673ffffffffffffffffffffffffffffffffffffffff163373ffffffffffffffffffffffffffffffffffffffff16145b156109b5576109b033610b0a565b610b06565b600160008154809291906001019190505550600060405180604001604052808381526020013373ffffffffffffffffffffffffffffffffffffffff16815250908060018154018082558091505090600182039060005260206000209060020201600090919290919091506000820151816000019080519060200190610a3b929190610bf4565b5060208201518160010160006101000a81548173ffffffffffffffffffffffffffffffffffffffff021916908373ffffffffffffffffffffffffffffffffffffffff16021790555050505034600f60003373ffffffffffffffffffffffffffffffffffffffff1673ffffffffffffffffffffffffffffffffffffffff168152602001908152602001600020819055507fdd2531324bdc7a0ec2062104ba113cc4c561189e1fd6905fa659fd4f7808484c338383604051610afd939291906111ff565b60405180910390a15b5050565b600e60008273ffffffffffffffffffffffffffffffffffffffff1673ffffffffffffffffffffffffffffffffffffffff16815260200190815260200160002060009054906101000a900460ff1615610b6157610bf1565b6001600e60008373ffffffffffffffffffffffffffffffffffffffff1673ffffffffffffffffffffffffffffffffffffffff16815260200190815260200160002060006101000a81548160ff0219169083151502179055507fb6d177e9c1090e879e384382951a234d03701128e360c4f2e0d568d51327b47881604051610be891906111e4565b60405180910390a15b50565b828054600181600116156101000203166002900490600052602060002090601f016020900481019282601f10610c3557805160ff1916838001178555610c63565b82800160010185558215610c63579182015b82811115610c62578251825591602001919060010190610c47565b5b509050610c709190610c74565b5090565b610c9691905b80821115610c92576000816000905550600101610c7a565b5090565b90565b600082601f830112610caa57600080fd5b8135610cbd610cb8826112f3565b6112c6565b9150818183526020840193506020810190508360005b83811015610d035781358601610ce98882610d0d565b845260208401935060208301925050600181019050610cd3565b5050505092915050565b600082601f830112610d1e57600080fd5b8135610d31610d2c8261131b565b6112c6565b9150818183526020840193506020810190508360005b83811015610d775781358601610d5d8882610dd5565b845260208401935060208301925050600181019050610d47565b5050505092915050565b600082601f830112610d9257600080fd5b8135610da5610da082611343565b6112c6565b91508082526020830160208301858383011115610dc157600080fd5b610dcc8382846114d5565b50505092915050565b600082601f830112610de657600080fd5b8135610df9610df48261136f565b6112c6565b91508082526020830160208301858383011115610e1557600080fd5b610e208382846114d5565b50505092915050565b60008060408385031215610e3c57600080fd5b600083013567ffffffffffffffff811115610e5657600080fd5b610e6285828601610c99565b925050602083013567ffffffffffffffff811115610e7f57600080fd5b610e8b85828601610d81565b9150509250929050565b6000610ea18383610f50565b905092915050565b6000610eb583836110bd565b905092915050565b610ec68161149f565b82525050565b610ed58161146d565b82525050565b6000610ee6826113c7565b610ef0818561140d565b935083602082028501610f028561139b565b8060005b85811015610f3e5784840389528151610f1f8582610e95565b9450610f2a836113f3565b925060208a01995050600181019050610f06565b50829750879550505050505092915050565b6000610f5b826113d2565b610f65818561141e565b935083602082028501610f77856113a8565b8060005b85811015610fb35784840389528151610f948582610ea9565b9450610f9f83611400565b925060208a01995050600181019050610f7b565b50829750879550505050505092915050565b6000610fd0826113dd565b610fda818561142f565b9350610fea8185602086016114e4565b610ff381611517565b840191505092915050565b6000611009826113dd565b6110138185611440565b93506110238185602086016114e4565b80840191505092915050565b60008154600181166000811461104c5760018114611071576110b5565b607f600283041661105d8187611440565b955060ff19831686528086019350506110b5565b6002820461107f8187611440565b955061108a856113b5565b60005b828110156110ac5781548189015260018201915060208101905061108d565b82880195505050505b505092915050565b60006110c8826113e8565b6110d2818561144b565b93506110e28185602086016114e4565b6110eb81611517565b840191505092915050565b6000611103600b8361145c565b91507f6e6f742072756e6e696e670000000000000000000000000000000000000000006000830152602082019050919050565b6000611143601b8361145c565b91507f7061727469636970616e742066756e64206e6f7420656e6f75676800000000006000830152602082019050919050565b600061118360098361145c565b91507f707265706172696e6700000000000000000000000000000000000000000000006000830152602082019050919050565b60006111c28284610ffe565b915081905092915050565b60006111d9828461102f565b915081905092915050565b60006020820190506111f96000830184610ecc565b92915050565b60006060820190506112146000830186610ebd565b81810360208301526112268185610edb565b9050818103604083015261123a8184610fc5565b9050949350505050565b6000602082019050818103600083015261125e8184610fc5565b905092915050565b6000602082019050818103600083015261127f816110f6565b9050919050565b6000602082019050818103600083015261129f81611136565b9050919050565b600060208201905081810360008301526112bf81611176565b9050919050565b6000604051905081810181811067ffffffffffffffff821117156112e957600080fd5b8060405250919050565b600067ffffffffffffffff82111561130a57600080fd5b602082029050602081019050919050565b600067ffffffffffffffff82111561133257600080fd5b602082029050602081019050919050565b600067ffffffffffffffff82111561135a57600080fd5b601f19601f8301169050602081019050919050565b600067ffffffffffffffff82111561138657600080fd5b601f19601f8301169050602081019050919050565b6000602082019050919050565b6000602082019050919050565b60008160005260206000209050919050565b600081519050919050565b600081519050919050565b600081519050919050565b600081519050919050565b6000602082019050919050565b6000602082019050919050565b600082825260208201905092915050565b600082825260208201905092915050565b600082825260208201905092915050565b600081905092915050565b600082825260208201905092915050565b600082825260208201905092915050565b60006114788261147f565b9050919050565b600073ffffffffffffffffffffffffffffffffffffffff82169050919050565b60006114aa826114b1565b9050919050565b60006114bc826114c3565b9050919050565b60006114ce8261147f565b9050919050565b82818337600083830152505050565b60005b838110156115025780820151818401526020810190506114e7565b83811115611511576000848401525b50505050565b6000601f19601f830116905091905056fea265627a7a72305820cad83204187049cc7b120edff91fc983bc76d925033b68fe634eaae28c3e0d886c6578706572696d656e74616cf50037",
  "source": "pragma solidity ^0.5.0;\r\npragma experimental ABIEncoderV2;\r\ncontract CalculationProc {\r\n    struct ansInfo{\r\n        bytes ans;\r\n        address payable participant;\r\n    }\r\n    ansInfo[] answerList;\r\n    uint256 ansCnt;\r\n    uint8 constant maxRewardedParticipantCount = 8;\r\n    uint8 state;\r\n    uint8 rewardedParticipantCount;\r\n    uint256 constant minimumMasterFund=1000000 wei;\r\n    uint256 constant minimumParticipantFund = 1000 wei;\r\n    uint256 startTime;\r\n    uint256[maxRewardedParticipantCount] rewardDistribute;\r\n    string jobID;\r\n    address payable master;\r\n    //mapping(address=>bool) visited;\r\n    mapping(address=>bool) blackList;\r\n    mapping(address=>uint256)funding;\r\n    mapping(bytes=>address payable[]) result;\r\n    event committed(address participant,string[][] ans,bytes ansHash);\r\n    event punished(address participant);\r\n    event terminated(bytes ans);\r\n    constructor(string memory id,\r\n                uint256 st,\r\n                uint256 fund,\r\n                uint8 participantCount,\r\n                uint256[maxRewardedParticipantCount] memory distribute)payable public{\r\n        require(participantCount>0 && participantCount<=maxRewardedParticipantCount,\"invalid rewardedParticipantCount\");\r\n        require(fund>minimumMasterFund,\"master fund not enough\");\r\n        uint256 tot = fund;\r\n        for(uint8 i = 0;i<participantCount;i++) tot += distribute[i];\r\n        require(tot==msg.value, \"invalid fund\");\r\n        jobID = id;\r\n        startTime = st;\r\n        rewardedParticipantCount = participantCount;\r\n        rewardDistribute = distribute;\r\n        state = 1;\r\n        master = msg.sender;\r\n        funding[master] = fund;\r\n    }\r\n    function commit(string[][] memory answer,bytes memory answerHash)public payable{\r\n        require(msg.value>=minimumParticipantFund,\"participant fund not enough\");\r\n        require(block.timestamp>=startTime,\"preparing\");\r\n        require(state==1,\"not running\");\r\n        if(blackList[msg.sender]) return;\r\n        if(funding[msg.sender]!=0 || msg.sender==master){\r\n            punish(msg.sender);\r\n            return;\r\n        }\r\n        ansCnt++;\r\n        answerList.push(ansInfo(answerHash,msg.sender));\r\n        funding[msg.sender] = msg.value;\r\n        emit committed(msg.sender,answer,answerHash);\r\n    }\r\n    function punish(address participant) internal {\r\n        if(blackList[participant]) return;\r\n        blackList[participant] = true;\r\n        emit punished(participant);\r\n    }\r\n    function terminate() public {\r\n        require(block.timestamp>=startTime,\"preparing\");\r\n        if(msg.sender!=master){\r\n            punish(msg.sender);\r\n            return;\r\n        }\r\n        uint256 maxcnt = 0;\r\n        bytes memory maxans;\r\n        for(uint256 i = 0;i<ansCnt;i++){\r\n            address payable pt = answerList[i].participant;\r\n            if(blackList[pt]) continue;\r\n            result[answerList[i].ans].push(pt);\r\n            uint256 l = result[answerList[i].ans].length;\r\n            if(l>maxcnt){\r\n                maxcnt = l;\r\n                maxans = answerList[i].ans;\r\n            }\r\n        }\r\n        uint256 l = result[maxans].length;\r\n        if(l<rewardedParticipantCount){\r\n            for(uint256 i = l;i<rewardedParticipantCount;i++){\r\n                funding[master] += rewardDistribute[i];\r\n            }\r\n            rewardedParticipantCount = uint8(l);\r\n        }\r\n        uint256 i;\r\n        for(i = 0;i<rewardedParticipantCount;i++){\r\n            address payable pt = result[maxans][i];\r\n            pt.send(rewardDistribute[i]+funding[pt]);\r\n        }\r\n        for(;i<l;i++){\r\n            address payable pt = result[maxans][i];\r\n            pt.send(funding[pt]);\r\n        }\r\n        if(!blackList[master]){\r\n            master.send(funding[master]);\r\n        }\r\n        emit terminated(maxans);\r\n    }\r\n    function()external payable{}\r\n}\r\n",
  "sourcePath": "D:/GoRepo/src/vcbb/contract/contracts/CalculationProc.sol",
  "compiler": {
    "name": "solc",
    "version": "0.5.8+commit.23d335f2.Emscripten.clang"
  },
  "schemaVersion": "3.0.12",
  "updatedAt": "2019-08-19T04:49:15.484Z",
  "devdoc": {
    "methods": {}
  },
  "userdoc": {
    "methods": {}
  }
}